{
    "contractName": "MetaToken",
    "abi": [
        {
            "constant": true,
            "inputs": [],
            "name": "name",
            "outputs": [
                {
                    "name": "",
                    "type": "string"
                }
            ],
            "payable": false,
            "stateMutability": "view",
            "type": "function"
        },
        {
            "constant": false,
            "inputs": [
                {
                    "name": "_spender",
                    "type": "address"
                },
                {
                    "name": "_value",
                    "type": "uint256"
                }
            ],
            "name": "approve",
            "outputs": [
                {
                    "name": "",
                    "type": "bool"
                }
            ],
            "payable": false,
            "stateMutability": "nonpayable",
            "type": "function"
        },
        {
            "constant": false,
            "inputs": [
                {
                    "name": "stablecoin",
                    "type": "address"
                },
                {
                    "name": "_amount",
                    "type": "uint256"
                }
            ],
            "name": "convertCarbonDollar",
            "outputs": [],
            "payable": false,
            "stateMutability": "nonpayable",
            "type": "function"
        },
        {
            "constant": true,
            "inputs": [],
            "name": "totalSupply",
            "outputs": [
                {
                    "name": "",
                    "type": "uint256"
                }
            ],
            "payable": false,
            "stateMutability": "view",
            "type": "function"
        },
        {
            "constant": false,
            "inputs": [
                {
                    "name": "_stablecoin",
                    "type": "address"
                }
            ],
            "name": "listToken",
            "outputs": [],
            "payable": false,
            "stateMutability": "nonpayable",
            "type": "function"
        },
        {
            "constant": true,
            "inputs": [],
            "name": "getDefaultFee",
            "outputs": [
                {
                    "name": "",
                    "type": "uint256"
                }
            ],
            "payable": false,
            "stateMutability": "view",
            "type": "function"
        },
        {
            "constant": false,
            "inputs": [
                {
                    "name": "_from",
                    "type": "address"
                },
                {
                    "name": "_to",
                    "type": "address"
                },
                {
                    "name": "_amount",
                    "type": "uint256"
                }
            ],
            "name": "transferFrom",
            "outputs": [
                {
                    "name": "",
                    "type": "bool"
                }
            ],
            "payable": false,
            "stateMutability": "nonpayable",
            "type": "function"
        },
        {
            "constant": true,
            "inputs": [],
            "name": "decimals",
            "outputs": [
                {
                    "name": "",
                    "type": "uint8"
                }
            ],
            "payable": false,
            "stateMutability": "view",
            "type": "function"
        },
        {
            "constant": true,
            "inputs": [
                {
                    "name": "_stablecoin",
                    "type": "address"
                }
            ],
            "name": "isWhitelisted",
            "outputs": [
                {
                    "name": "",
                    "type": "bool"
                }
            ],
            "payable": false,
            "stateMutability": "view",
            "type": "function"
        },
        {
            "constant": false,
            "inputs": [],
            "name": "unpause",
            "outputs": [],
            "payable": false,
            "stateMutability": "nonpayable",
            "type": "function"
        },
        {
            "constant": false,
            "inputs": [
                {
                    "name": "_to",
                    "type": "address"
                },
                {
                    "name": "_amount",
                    "type": "uint256"
                }
            ],
            "name": "mint",
            "outputs": [],
            "payable": false,
            "stateMutability": "nonpayable",
            "type": "function"
        },
        {
            "constant": false,
            "inputs": [
                {
                    "name": "_amount",
                    "type": "uint256"
                }
            ],
            "name": "burn",
            "outputs": [],
            "payable": false,
            "stateMutability": "nonpayable",
            "type": "function"
        },
        {
            "constant": false,
            "inputs": [],
            "name": "claimOwnership",
            "outputs": [],
            "payable": false,
            "stateMutability": "nonpayable",
            "type": "function"
        },
        {
            "constant": true,
            "inputs": [],
            "name": "blacklisted",
            "outputs": [
                {
                    "name": "",
                    "type": "bool"
                }
            ],
            "payable": false,
            "stateMutability": "view",
            "type": "function"
        },
        {
            "constant": true,
            "inputs": [],
            "name": "paused",
            "outputs": [
                {
                    "name": "",
                    "type": "bool"
                }
            ],
            "payable": false,
            "stateMutability": "view",
            "type": "function"
        },
        {
            "constant": false,
            "inputs": [
                {
                    "name": "_spender",
                    "type": "address"
                },
                {
                    "name": "_subtractedValue",
                    "type": "uint256"
                }
            ],
            "name": "decreaseApproval",
            "outputs": [
                {
                    "name": "",
                    "type": "bool"
                }
            ],
            "payable": false,
            "stateMutability": "nonpayable",
            "type": "function"
        },
        {
            "constant": false,
            "inputs": [
                {
                    "name": "_blacklistedAccount",
                    "type": "address"
                }
            ],
            "name": "approveBlacklistedAddressSpender",
            "outputs": [],
            "payable": false,
            "stateMutability": "nonpayable",
            "type": "function"
        },
        {
            "constant": true,
            "inputs": [
                {
                    "name": "",
                    "type": "address"
                }
            ],
            "name": "replayNonce",
            "outputs": [
                {
                    "name": "",
                    "type": "uint256"
                }
            ],
            "payable": false,
            "stateMutability": "view",
            "type": "function"
        },
        {
            "constant": false,
            "inputs": [
                {
                    "name": "stablecoin",
                    "type": "address"
                }
            ],
            "name": "removeFee",
            "outputs": [],
            "payable": false,
            "stateMutability": "nonpayable",
            "type": "function"
        },
        {
            "constant": true,
            "inputs": [
                {
                    "name": "_addr",
                    "type": "address"
                }
            ],
            "name": "balanceOf",
            "outputs": [
                {
                    "name": "",
                    "type": "uint256"
                }
            ],
            "payable": false,
            "stateMutability": "view",
            "type": "function"
        },
        {
            "constant": false,
            "inputs": [],
            "name": "pause",
            "outputs": [],
            "payable": false,
            "stateMutability": "nonpayable",
            "type": "function"
        },
        {
            "constant": true,
            "inputs": [
                {
                    "name": "stablecoin",
                    "type": "address"
                }
            ],
            "name": "computeFeeRate",
            "outputs": [
                {
                    "name": "feeRate",
                    "type": "uint256"
                }
            ],
            "payable": false,
            "stateMutability": "view",
            "type": "function"
        },
        {
            "constant": true,
            "inputs": [],
            "name": "isMethodEnabled",
            "outputs": [
                {
                    "name": "",
                    "type": "bool"
                }
            ],
            "payable": false,
            "stateMutability": "view",
            "type": "function"
        },
        {
            "constant": true,
            "inputs": [],
            "name": "owner",
            "outputs": [
                {
                    "name": "",
                    "type": "address"
                }
            ],
            "payable": false,
            "stateMutability": "view",
            "type": "function"
        },
        {
            "constant": true,
            "inputs": [],
            "name": "symbol",
            "outputs": [
                {
                    "name": "",
                    "type": "string"
                }
            ],
            "payable": false,
            "stateMutability": "view",
            "type": "function"
        },
        {
            "constant": true,
            "inputs": [],
            "name": "tokenStorage_CD",
            "outputs": [
                {
                    "name": "",
                    "type": "address"
                }
            ],
            "payable": false,
            "stateMutability": "view",
            "type": "function"
        },
        {
            "constant": false,
            "inputs": [],
            "name": "unlock",
            "outputs": [],
            "payable": false,
            "stateMutability": "nonpayable",
            "type": "function"
        },
        {
            "constant": false,
            "inputs": [
                {
                    "name": "_to",
                    "type": "address"
                },
                {
                    "name": "_amount",
                    "type": "uint256"
                }
            ],
            "name": "transfer",
            "outputs": [
                {
                    "name": "",
                    "type": "bool"
                }
            ],
            "payable": false,
            "stateMutability": "nonpayable",
            "type": "function"
        },
        {
            "constant": false,
            "inputs": [
                {
                    "name": "_stablecoin",
                    "type": "address"
                }
            ],
            "name": "unlistToken",
            "outputs": [],
            "payable": false,
            "stateMutability": "nonpayable",
            "type": "function"
        },
        {
            "constant": true,
            "inputs": [],
            "name": "tokenStorage",
            "outputs": [
                {
                    "name": "",
                    "type": "address"
                }
            ],
            "payable": false,
            "stateMutability": "view",
            "type": "function"
        },
        {
            "constant": true,
            "inputs": [
                {
                    "name": "stablecoin",
                    "type": "address"
                }
            ],
            "name": "getFee",
            "outputs": [
                {
                    "name": "",
                    "type": "uint256"
                }
            ],
            "payable": false,
            "stateMutability": "view",
            "type": "function"
        },
        {
            "constant": false,
            "inputs": [
                {
                    "name": "stablecoin",
                    "type": "address"
                },
                {
                    "name": "_amount",
                    "type": "uint256"
                }
            ],
            "name": "burnCarbonDollar",
            "outputs": [],
            "payable": false,
            "stateMutability": "nonpayable",
            "type": "function"
        },
        {
            "constant": false,
            "inputs": [
                {
                    "name": "_who",
                    "type": "address"
                },
                {
                    "name": "_amount",
                    "type": "uint256"
                }
            ],
            "name": "destroyBlacklistedTokens",
            "outputs": [],
            "payable": false,
            "stateMutability": "nonpayable",
            "type": "function"
        },
        {
            "constant": false,
            "inputs": [
                {
                    "name": "_newFee",
                    "type": "uint256"
                }
            ],
            "name": "setDefaultFee",
            "outputs": [],
            "payable": false,
            "stateMutability": "nonpayable",
            "type": "function"
        },
        {
            "constant": false,
            "inputs": [
                {
                    "name": "_newRegulator",
                    "type": "address"
                }
            ],
            "name": "setRegulator",
            "outputs": [],
            "payable": false,
            "stateMutability": "nonpayable",
            "type": "function"
        },
        {
            "constant": false,
            "inputs": [
                {
                    "name": "_spender",
                    "type": "address"
                },
                {
                    "name": "_addedValue",
                    "type": "uint256"
                }
            ],
            "name": "increaseApproval",
            "outputs": [
                {
                    "name": "",
                    "type": "bool"
                }
            ],
            "payable": false,
            "stateMutability": "nonpayable",
            "type": "function"
        },
        {
            "constant": true,
            "inputs": [
                {
                    "name": "owner",
                    "type": "address"
                },
                {
                    "name": "spender",
                    "type": "address"
                }
            ],
            "name": "allowance",
            "outputs": [
                {
                    "name": "",
                    "type": "uint256"
                }
            ],
            "payable": false,
            "stateMutability": "view",
            "type": "function"
        },
        {
            "constant": true,
            "inputs": [],
            "name": "regulator",
            "outputs": [
                {
                    "name": "",
                    "type": "address"
                }
            ],
            "payable": false,
            "stateMutability": "view",
            "type": "function"
        },
        {
            "constant": true,
            "inputs": [],
            "name": "pendingOwner",
            "outputs": [
                {
                    "name": "",
                    "type": "address"
                }
            ],
            "payable": false,
            "stateMutability": "view",
            "type": "function"
        },
        {
            "constant": false,
            "inputs": [
                {
                    "name": "stablecoin",
                    "type": "address"
                },
                {
                    "name": "_newFee",
                    "type": "uint256"
                }
            ],
            "name": "setFee",
            "outputs": [],
            "payable": false,
            "stateMutability": "nonpayable",
            "type": "function"
        },
        {
            "constant": false,
            "inputs": [
                {
                    "name": "_newOwner",
                    "type": "address"
                }
            ],
            "name": "transferOwnership",
            "outputs": [],
            "payable": false,
            "stateMutability": "nonpayable",
            "type": "function"
        },
        {
            "constant": false,
            "inputs": [
                {
                    "name": "_amount",
                    "type": "uint256"
                }
            ],
            "name": "releaseCarbonDollar",
            "outputs": [
                {
                    "name": "",
                    "type": "bool"
                }
            ],
            "payable": false,
            "stateMutability": "nonpayable",
            "type": "function"
        },
        {
            "constant": false,
            "inputs": [],
            "name": "lock",
            "outputs": [],
            "payable": false,
            "stateMutability": "nonpayable",
            "type": "function"
        },
        {
            "inputs": [
                {
                    "name": "_regulator",
                    "type": "address"
                }
            ],
            "payable": false,
            "stateMutability": "nonpayable",
            "type": "constructor"
        },
        {
            "anonymous": false,
            "inputs": [
                {
                    "indexed": true,
                    "name": "user",
                    "type": "address"
                },
                {
                    "indexed": false,
                    "name": "amount",
                    "type": "uint256"
                }
            ],
            "name": "ConvertedToWT",
            "type": "event"
        },
        {
            "anonymous": false,
            "inputs": [
                {
                    "indexed": true,
                    "name": "user",
                    "type": "address"
                },
                {
                    "indexed": false,
                    "name": "feedAmount",
                    "type": "uint256"
                },
                {
                    "indexed": false,
                    "name": "chargedFee",
                    "type": "uint256"
                }
            ],
            "name": "BurnedCUSD",
            "type": "event"
        },
        {
            "anonymous": false,
            "inputs": [
                {
                    "indexed": true,
                    "name": "account",
                    "type": "address"
                },
                {
                    "indexed": false,
                    "name": "amount",
                    "type": "uint256"
                }
            ],
            "name": "DestroyedBlacklistedTokens",
            "type": "event"
        },
        {
            "anonymous": false,
            "inputs": [
                {
                    "indexed": true,
                    "name": "owner",
                    "type": "address"
                },
                {
                    "indexed": true,
                    "name": "spender",
                    "type": "address"
                },
                {
                    "indexed": false,
                    "name": "value",
                    "type": "uint256"
                }
            ],
            "name": "ApprovedBlacklistedAddressSpender",
            "type": "event"
        },
        {
            "anonymous": false,
            "inputs": [
                {
                    "indexed": true,
                    "name": "to",
                    "type": "address"
                },
                {
                    "indexed": false,
                    "name": "value",
                    "type": "uint256"
                }
            ],
            "name": "Mint",
            "type": "event"
        },
        {
            "anonymous": false,
            "inputs": [
                {
                    "indexed": true,
                    "name": "burner",
                    "type": "address"
                },
                {
                    "indexed": false,
                    "name": "value",
                    "type": "uint256"
                }
            ],
            "name": "Burn",
            "type": "event"
        },
        {
            "anonymous": false,
            "inputs": [
                {
                    "indexed": true,
                    "name": "from",
                    "type": "address"
                },
                {
                    "indexed": true,
                    "name": "to",
                    "type": "address"
                },
                {
                    "indexed": false,
                    "name": "value",
                    "type": "uint256"
                }
            ],
            "name": "Transfer",
            "type": "event"
        },
        {
            "anonymous": false,
            "inputs": [
                {
                    "indexed": true,
                    "name": "owner",
                    "type": "address"
                },
                {
                    "indexed": true,
                    "name": "spender",
                    "type": "address"
                },
                {
                    "indexed": false,
                    "name": "value",
                    "type": "uint256"
                }
            ],
            "name": "Approval",
            "type": "event"
        },
        {
            "anonymous": false,
            "inputs": [
                {
                    "indexed": true,
                    "name": "oldRegulator",
                    "type": "address"
                },
                {
                    "indexed": true,
                    "name": "newRegulator",
                    "type": "address"
                }
            ],
            "name": "ChangedRegulator",
            "type": "event"
        },
        {
            "anonymous": false,
            "inputs": [],
            "name": "Unlocked",
            "type": "event"
        },
        {
            "anonymous": false,
            "inputs": [],
            "name": "Locked",
            "type": "event"
        },
        {
            "anonymous": false,
            "inputs": [],
            "name": "Pause",
            "type": "event"
        },
        {
            "anonymous": false,
            "inputs": [],
            "name": "Unpause",
            "type": "event"
        },
        {
            "anonymous": false,
            "inputs": [
                {
                    "indexed": true,
                    "name": "previousOwner",
                    "type": "address"
                },
                {
                    "indexed": true,
                    "name": "newOwner",
                    "type": "address"
                }
            ],
            "name": "OwnershipTransferred",
            "type": "event"
        },
        {
            "constant": false,
            "inputs": [
                {
                    "name": "_spender",
                    "type": "address"
                },
                {
                    "name": "_addedValue",
                    "type": "uint256"
                },
                {
                    "name": "_signature",
                    "type": "bytes"
                },
                {
                    "name": "_nonce",
                    "type": "uint256"
                },
                {
                    "name": "_reward",
                    "type": "uint256"
                }
            ],
            "name": "metaIncreaseApproval",
            "outputs": [
                {
                    "name": "",
                    "type": "bool"
                }
            ],
            "payable": false,
            "stateMutability": "nonpayable",
            "type": "function"
        },
        {
            "constant": false,
            "inputs": [
                {
                    "name": "_to",
                    "type": "address"
                },
                {
                    "name": "_amount",
                    "type": "uint256"
                },
                {
                    "name": "_signature",
                    "type": "bytes"
                },
                {
                    "name": "_nonce",
                    "type": "uint256"
                },
                {
                    "name": "_reward",
                    "type": "uint256"
                }
            ],
            "name": "metaTransfer",
            "outputs": [
                {
                    "name": "",
                    "type": "bool"
                }
            ],
            "payable": false,
            "stateMutability": "nonpayable",
            "type": "function"
        },
        {
            "constant": false,
            "inputs": [
                {
                    "name": "_stablecoin",
                    "type": "address"
                },
                {
                    "name": "_amount",
                    "type": "uint256"
                },
                {
                    "name": "_signature",
                    "type": "bytes"
                },
                {
                    "name": "_nonce",
                    "type": "uint256"
                },
                {
                    "name": "_reward",
                    "type": "uint256"
                }
            ],
            "name": "metaBurnCarbonDollar",
            "outputs": [
                {
                    "name": "",
                    "type": "bool"
                }
            ],
            "payable": false,
            "stateMutability": "nonpayable",
            "type": "function"
        },
        {
            "constant": true,
            "inputs": [
                {
                    "name": "_to",
                    "type": "address"
                },
                {
                    "name": "_amount",
                    "type": "uint256"
                },
                {
                    "name": "_nonce",
                    "type": "uint256"
                },
                {
                    "name": "_reward",
                    "type": "uint256"
                }
            ],
            "name": "metaTransferHash",
            "outputs": [
                {
                    "name": "",
                    "type": "bytes32"
                }
            ],
            "payable": false,
            "stateMutability": "view",
            "type": "function"
        },
        {
            "constant": true,
            "inputs": [
                {
                    "name": "_spender",
                    "type": "address"
                },
                {
                    "name": "_addedValue",
                    "type": "uint256"
                },
                {
                    "name": "_nonce",
                    "type": "uint256"
                },
                {
                    "name": "_reward",
                    "type": "uint256"
                }
            ],
            "name": "metaApproveHash",
            "outputs": [
                {
                    "name": "",
                    "type": "bytes32"
                }
            ],
            "payable": false,
            "stateMutability": "view",
            "type": "function"
        },
        {
            "constant": true,
            "inputs": [
                {
                    "name": "_stablecoin",
                    "type": "address"
                },
                {
                    "name": "_amount",
                    "type": "uint256"
                },
                {
                    "name": "_nonce",
                    "type": "uint256"
                },
                {
                    "name": "_reward",
                    "type": "uint256"
                }
            ],
            "name": "metaBurnHash",
            "outputs": [
                {
                    "name": "",
                    "type": "bytes32"
                }
            ],
            "payable": false,
            "stateMutability": "view",
            "type": "function"
        }
    ],
    "bytecode": "0x60806040526001805460a060020a61ffff02191690553480156200002257600080fd5b5060405160208062005a3583398101604052516000805433600160a060020a031991821617909155600180548216905560038054909116600160a060020a03831617905580806200007262000111565b604051809103906000f0801580156200008f573d6000803e3d6000fd5b5060028054600160a060020a0319908116600160a060020a03938416179091556003805490911691841691909117905550620000ca62000122565b604051809103906000f080158015620000e7573d6000803e3d6000fd5b5060048054600160a060020a031916600160a060020a039290921691909117905550620001339050565b6040516107188062004c1e83390190565b6040516106ff806200533683390190565b614adb80620001436000396000f3006080604052600436106102375763ffffffff60e060020a60003504166306fdde03811461023c578063095ea7b3146102c65780630d4b8208146102fe57806318160ddd146103245780631fc1e25f1461034b57806321bacf281461036c57806323b872dd14610381578063313ce567146103ab5780633af32abf146103d65780633f4ba83a146103f757806340c10f191461040c57806342966c68146104305780634e71e0c8146104485780635bae9ce91461045d5780635c975abb146104725780636618846314610487578063662f94c0146104ab57806367d407df146104cc5780636ad26611146104ed57806370a082311461050e57806372b7f8931461052f5780638456cb59146105a1578063873ab2ce146105b657806388fa2617146105d75780638da5cb5b146105ec57806395d89b411461023c5780639d36b5c41461061d5780639dec218914610632578063a69df4b51461065c578063a9059cbb14610671578063abcb993414610695578063b199efb5146106b6578063b88c9148146106cb578063ba6f4ab0146106ec578063bf4b72e314610710578063c534ba4b1461073a578063c93a6c841461075e578063cde0a4f814610776578063d73dd62314610797578063d76f288f146107bb578063dd62ed3e146107e5578063dd8fee141461080c578063de08a6d814610821578063e30c397814610893578063e55156b5146108a8578063f0fe3d68146108cc578063f2fde38b1461093e578063f7fd3d011461095f578063f83d08ba14610977575b600080fd5b34801561024857600080fd5b5061025161098c565b6040805160208082528351818301528351919283929083019185019080838360005b8381101561028b578181015183820152602001610273565b50505050905090810190601f1680156102b85780820380516001836020036101000a031916815260200191505b509250505060405180910390f35b3480156102d257600080fd5b506102ea600160a060020a03600435166024356109c3565b604080519115158252519081900360200190f35b34801561030a57600080fd5b50610322600160a060020a0360043516602435610c5e565b005b34801561033057600080fd5b506103396110d3565b60408051918252519081900360200190f35b34801561035757600080fd5b50610322600160a060020a0360043516611163565b34801561037857600080fd5b50610339611217565b34801561038d57600080fd5b506102ea600160a060020a036004358116906024351660443561126c565b3480156103b757600080fd5b506103c0611628565b6040805160ff9092168252519081900360200190f35b3480156103e257600080fd5b506102ea600160a060020a036004351661162d565b34801561040357600080fd5b506103226116ce565b34801561041857600080fd5b50610322600160a060020a0360043516602435611746565b34801561043c57600080fd5b506103226004356117f0565b34801561045457600080fd5b506103226118d2565b34801561046957600080fd5b506102ea61195a565b34801561047e57600080fd5b506102ea611a95565b34801561049357600080fd5b506102ea600160a060020a0360043516602435611aa5565b3480156104b757600080fd5b50610322600160a060020a0360043516611c55565b3480156104d857600080fd5b50610339600160a060020a0360043516611f4c565b3480156104f957600080fd5b50610322600160a060020a0360043516611f5e565b34801561051a57600080fd5b50610339600160a060020a036004351661206a565b34801561053b57600080fd5b50604080516020600460443581810135601f81018490048402850184019095528484526102ea948235600160a060020a03169460248035953695946064949201919081908401838280828437509497505084359550505060209092013591506120d59050565b3480156105ad57600080fd5b5061032261247c565b3480156105c257600080fd5b50610339600160a060020a03600435166124f9565b3480156105e357600080fd5b506102ea612529565b3480156105f857600080fd5b5061060161254b565b60408051600160a060020a039092168252519081900360200190f35b34801561062957600080fd5b5061060161255a565b34801561063e57600080fd5b50610339600160a060020a0360043516602435604435606435612569565b34801561066857600080fd5b5061032261264c565b34801561067d57600080fd5b506102ea600160a060020a03600435166024356126c5565b3480156106a157600080fd5b50610322600160a060020a036004351661286a565b3480156106c257600080fd5b50610601612903565b3480156106d757600080fd5b50610339600160a060020a0360043516612912565b3480156106f857600080fd5b50610322600160a060020a036004351660243561297f565b34801561071c57600080fd5b50610339600160a060020a0360043516602435604435606435612a67565b34801561074657600080fd5b50610322600160a060020a0360043516602435612b13565b34801561076a57600080fd5b50610322600435612e6a565b34801561078257600080fd5b50610322600160a060020a0360043516612efc565b3480156107a357600080fd5b506102ea600160a060020a036004351660243561305f565b3480156107c757600080fd5b50610339600160a060020a0360043516602435604435606435613204565b3480156107f157600080fd5b50610339600160a060020a03600435811690602435166132b1565b34801561081857600080fd5b50610601613357565b34801561082d57600080fd5b50604080516020600460443581810135601f81018490048402850184019095528484526102ea948235600160a060020a03169460248035953695946064949201919081908401838280828437509497505084359550505060209092013591506133669050565b34801561089f57600080fd5b506106016136f6565b3480156108b457600080fd5b50610322600160a060020a0360043516602435613705565b3480156108d857600080fd5b50604080516020600460443581810135601f81018490048402850184019095528484526102ea948235600160a060020a03169460248035953695946064949201919081908401838280828437509497505084359550505060209092013591506138349050565b34801561094a57600080fd5b50610322600160a060020a0360043516613b1b565b34801561096b57600080fd5b506102ea600435613b76565b34801561098357600080fd5b50610322613d0d565b60408051808201909152600481527f4355534400000000000000000000000000000000000000000000000000000000602082015281565b6003546040805160e060020a637ccce851028152600160a060020a038086166004830152915160009386931691637ccce85191602480830192602092919082900301818887803b158015610a1657600080fd5b505af1158015610a2a573d6000803e3d6000fd5b505050506040513d6020811015610a4057600080fd5b505115610a85576040805160e560020a62461bcd02815260206004820152601c6024820152600080516020614a70833981519152604482015290519081900360640190fd5b6003546040805160e060020a637ccce851028152336004820181905291519192600160a060020a031691637ccce851916024808201926020929091908290030181600087803b158015610ad757600080fd5b505af1158015610aeb573d6000803e3d6000fd5b505050506040513d6020811015610b0157600080fd5b505115610b46576040805160e560020a62461bcd02815260206004820152601c6024820152600080516020614a70833981519152604482015290519081900360640190fd5b60015460a060020a900460ff1615610b5d57600080fd5b6001547501000000000000000000000000000000000000000000900460ff161515610b8757600080fd5b600254604080517fda46098c000000000000000000000000000000000000000000000000000000008152336004820152600160a060020a038881166024830152604482018890529151919092169163da46098c91606480830192600092919082900301818387803b158015610bfb57600080fd5b505af1158015610c0f573d6000803e3d6000fd5b5050604080518781529051600160a060020a03891693503392507f8c5be1e5ebec7d5bd14f71427d1e84f3dd0314c0f7b2291e5b200ac8c7c3b9259181900360200190a3506001949350505050565b6003546040805160e060020a637ccce85102815233600482018190529151600093849384939092600160a060020a0390921691637ccce8519160248082019260209290919082900301818887803b158015610cb857600080fd5b505af1158015610ccc573d6000803e3d6000fd5b505050506040513d6020811015610ce257600080fd5b505115610d27576040805160e560020a62461bcd02815260206004820152601c6024820152600080516020614a70833981519152604482015290519081900360640190fd5b60015460a060020a900460ff1615610d3e57600080fd5b610d478661162d565b1515610db1576040805160e560020a62461bcd02815260206004820152603e6024820152600080516020614a5083398151915260448201527f72696f7220746f2073657474696e6720636f6e76657273696f6e206665650000606482015290519081900360840190fd5b604080517f70a0823100000000000000000000000000000000000000000000000000000000815230600482015290518795508691600160a060020a038716916370a08231916024808201926020929091908290030181600087803b158015610e1857600080fd5b505af1158015610e2c573d6000803e3d6000fd5b505050506040513d6020811015610e4257600080fd5b50511015610ee6576040805160e560020a62461bcd02815260206004820152604360248201527f436172626f6e20657363726f77206163636f756e7420696e2057543020646f6560448201527f736e2774206861766520656e6f75676820746f6b656e7320666f72206275726e60648201527f696e670000000000000000000000000000000000000000000000000000000000608482015290519081900360a40190fd5b600454600160a060020a0316632ff284c286610f01896124f9565b6040518363ffffffff1660e060020a0281526004018083815260200182815260200192505050602060405180830381600087803b158015610f4157600080fd5b505af1158015610f55573d6000803e3d6000fd5b505050506040513d6020811015610f6b57600080fd5b50519250610f7f858463ffffffff613d6e16565b9150610f8b3386613d80565b604080517fa9059cbb000000000000000000000000000000000000000000000000000000008152336004820152602481018490529051600160a060020a0386169163a9059cbb9160448083019260209291908290030181600087803b158015610ff357600080fd5b505af1158015611007573d6000803e3d6000fd5b505050506040513d602081101561101d57600080fd5b5051151561102a57600080fd5b83600160a060020a03166342966c68846040518263ffffffff1660e060020a02815260040180828152602001915050600060405180830381600087803b15801561107357600080fd5b505af1158015611087573d6000803e3d6000fd5b505050506110953084613fa0565b60408051868152905133917f3a91515f120c05831525e72379609e84b30a70ab21104f3222d0e91411aadc52919081900360200190a2505050505050565b600254604080517f18160ddd0000000000000000000000000000000000000000000000000000000081529051600092600160a060020a0316916318160ddd91600480830192602092919082900301818787803b15801561113257600080fd5b505af1158015611146573d6000803e3d6000fd5b505050506040513d602081101561115c57600080fd5b5051905090565b600054600160a060020a0316331461117a57600080fd5b60015460a060020a900460ff161561119157600080fd5b60048054604080517f0418945a000000000000000000000000000000000000000000000000000000008152600160a060020a038581169482019490945290519290911691630418945a9160248082019260009290919082900301818387803b1580156111fc57600080fd5b505af1158015611210573d6000803e3d6000fd5b5050505050565b6000600460009054906101000a9004600160a060020a0316600160a060020a0316635a6c72d06040518163ffffffff1660e060020a028152600401602060405180830381600087803b15801561113257600080fd5b60015460009060a060020a900460ff161561128657600080fd5b6003546040805160e060020a637ccce851028152600160a060020a03808716600483015291518793879360009384939190921691637ccce85191602480830192602092919082900301818787803b1580156112e057600080fd5b505af11580156112f4573d6000803e3d6000fd5b505050506040513d602081101561130a57600080fd5b505115611361576040805160e560020a62461bcd02815260206004820152601f60248201527f526563697069656e742063616e6e6f7420626520626c61636b6c697374656400604482015290519081900360640190fd5b6003546040805160e060020a637ccce851028152600160a060020a03878116600483015291519190921691637ccce8519160248083019260209291908290030181600087803b1580156113b357600080fd5b505af11580156113c7573d6000803e3d6000fd5b505050506040513d60208110156113dd57600080fd5b5051600354604080517f91c4529f0000000000000000000000000000000000000000000000000000000081523360048201529051929450600160a060020a03909116916391c4529f916024808201926020929091908290030181600087803b15801561144857600080fd5b505af115801561145c573d6000803e3d6000fd5b505050506040513d602081101561147257600080fd5b505190508115806114805750805b1515611522576040805160e560020a62461bcd02815260206004820152604c60248201527f4f726967696e2063616e6e6f7420626520626c61636b6c69737465642069662060448201527f7370656e646572206973206e6f7420616e20617070726f76656420626c61636b60648201527f6c697374207370656e6465720000000000000000000000000000000000000000608482015290519081900360a40190fd5b61152c88336132b1565b861115611583576040805160e560020a62461bcd02815260206004820181905260248201527f6e6f7420656e6f75676820616c6c6f77616e636520746f207472616e73666572604482015290519081900360640190fd5b61158e878988614176565b600254604080517f97d88cd2000000000000000000000000000000000000000000000000000000008152600160a060020a038b81166004830152336024830152604482018a9052915191909216916397d88cd291606480830192600092919082900301818387803b15801561160257600080fd5b505af1158015611616573d6000803e3d6000fd5b5060019b9a5050505050505050505050565b601281565b60048054604080517f9b19251a000000000000000000000000000000000000000000000000000000008152600160a060020a0385811694820194909452905160009390921691639b19251a9160248082019260209290919082900301818787803b15801561169a57600080fd5b505af11580156116ae573d6000803e3d6000fd5b505050506040513d60208110156116c457600080fd5b505190505b919050565b600054600160a060020a031633146116e557600080fd5b60015460a060020a900460ff1615156116fd57600080fd5b6001805474ff0000000000000000000000000000000000000000191690556040517f7805862f689e2f13df9f062ff482ad3ad112aca9e0847911ed832e158c525b3390600090a1565b61174f3361162d565b15156117cb576040805160e560020a62461bcd02815260206004820152602b60248201527f53656e646572206d75737420626520612077686974656c697374656420746f6b60448201527f656e20636f6e7472616374000000000000000000000000000000000000000000606482015290519081900360840190fd5b60015460a060020a900460ff16156117e257600080fd5b6117ec8282613fa0565b5050565b6003546040805160e060020a637ccce851028152336004820181905291519192600160a060020a031691637ccce851916024808201926020929091908290030181600087803b15801561184257600080fd5b505af1158015611856573d6000803e3d6000fd5b505050506040513d602081101561186c57600080fd5b5051156118b1576040805160e560020a62461bcd02815260206004820152601c6024820152600080516020614a70833981519152604482015290519081900360640190fd5b60015460a060020a900460ff16156118c857600080fd5b6117ec3383613d80565b600154600160a060020a031633146118e957600080fd5b60015460008054604051600160a060020a0393841693909116917f8be0079c531659141344cd1fd0a4f28419497f9722a3daafe3b4186f6b6457e091a3600180546000805473ffffffffffffffffffffffffffffffffffffffff19908116600160a060020a03841617909155169055565b600354604080517f14db6d58000000000000000000000000000000000000000000000000000000008152336004820152600080357bffffffffffffffffffffffffffffffffffffffffffffffffffffffff1916602483015291519192600160a060020a0316916314db6d589160448082019260209290919082900301818787803b1580156119e757600080fd5b505af11580156119fb573d6000803e3d6000fd5b505050506040513d6020811015611a1157600080fd5b50511515611a8f576040805160e560020a62461bcd02815260206004820152603160248201527f5573657220646f6573206e6f742068617665207065726d697373696f6e20746f60448201527f20657865637574652066756e6374696f6e000000000000000000000000000000606482015290519081900360840190fd5b50600190565b60015460a060020a900460ff1681565b6003546040805160e060020a637ccce851028152600160a060020a038086166004830152915160009386931691637ccce85191602480830192602092919082900301818887803b158015611af857600080fd5b505af1158015611b0c573d6000803e3d6000fd5b505050506040513d6020811015611b2257600080fd5b505115611b67576040805160e560020a62461bcd02815260206004820152601c6024820152600080516020614a70833981519152604482015290519081900360640190fd5b6003546040805160e060020a637ccce851028152336004820181905291519192600160a060020a031691637ccce851916024808201926020929091908290030181600087803b158015611bb957600080fd5b505af1158015611bcd573d6000803e3d6000fd5b505050506040513d6020811015611be357600080fd5b505115611c28576040805160e560020a62461bcd02815260206004820152601c6024820152600080516020614a70833981519152604482015290519081900360640190fd5b60015460a060020a900460ff1615611c3f57600080fd5b611c4a858533614361565b506001949350505050565b6003546040805160e060020a637ccce851028152600160a060020a038085166004830152915184939290921691637ccce851916024808201926020929091908290030181600087803b158015611caa57600080fd5b505af1158015611cbe573d6000803e3d6000fd5b505050506040513d6020811015611cd457600080fd5b50511515611d2c576040805160e560020a62461bcd02815260206004820152601860248201527f55736572206d75737420626520626c61636b6c69737465640000000000000000604482015290519081900360640190fd5b60015460a060020a900460ff1615611d4357600080fd5b600354604080517f14db6d58000000000000000000000000000000000000000000000000000000008152336004820152600080357bffffffffffffffffffffffffffffffffffffffffffffffffffffffff191660248301529151600160a060020a03909316926314db6d5892604480840193602093929083900390910190829087803b158015611dd257600080fd5b505af1158015611de6573d6000803e3d6000fd5b505050506040513d6020811015611dfc57600080fd5b50511515611e7a576040805160e560020a62461bcd02815260206004820152603160248201527f5573657220646f6573206e6f742068617665207065726d697373696f6e20746f60448201527f20657865637574652066756e6374696f6e000000000000000000000000000000606482015290519081900360840190fd5b600254600160a060020a031663da46098c8333611e968261206a565b6040805160e060020a63ffffffff8716028152600160a060020a03948516600482015292909316602483015260448201529051606480830192600092919082900301818387803b158015611ee957600080fd5b505af1158015611efd573d6000803e3d6000fd5b503392505050600160a060020a0383167f3b1ffca3903932aa264fbb5b7b381746e2b7b61c9c5a6024bad48d23f958a6c2611f378561206a565b60408051918252519081900360200190a35050565b60056020526000908152604090205481565b600054600160a060020a03163314611f7557600080fd5b60015460a060020a900460ff1615611f8c57600080fd5b611f958161162d565b1515611fff576040805160e560020a62461bcd02815260206004820152603e6024820152600080516020614a5083398151915260448201527f72696f7220746f2073657474696e6720636f6e76657273696f6e206665650000606482015290519081900360840190fd5b60048054604080517f6ad26611000000000000000000000000000000000000000000000000000000008152600160a060020a038581169482019490945290519290911691636ad266119160248082019260009290919082900301818387803b1580156111fc57600080fd5b600254604080517f27e235e3000000000000000000000000000000000000000000000000000000008152600160a060020a038481166004830152915160009392909216916327e235e39160248082019260209290919082900301818787803b15801561169a57600080fd5b6003546040805160e060020a637ccce851028152600160a060020a0380891660048301529151600093849384938b939190921691637ccce85191602480830192602092919082900301818887803b15801561212f57600080fd5b505af1158015612143573d6000803e3d6000fd5b505050506040513d602081101561215957600080fd5b50511561219e576040805160e560020a62461bcd02815260206004820152601c6024820152600080516020614a70833981519152604482015290519081900360640190fd5b60015460a060020a900460ff16156121b557600080fd5b6121c189898888612569565b92506121cd83886144ed565b6003546040805160e060020a637ccce851028152600160a060020a0380851660048301529151939550911691637ccce851916024808201926020929091908290030181600087803b15801561222157600080fd5b505af1158015612235573d6000803e3d6000fd5b505050506040513d602081101561224b57600080fd5b5051156122a2576040805160e560020a62461bcd02815260206004820152601560248201527f7369676e657220697320626c61636b6c69737465640000000000000000000000604482015290519081900360640190fd5b600160a060020a0382166000908152600560205260409020548614612337576040805160e560020a62461bcd02815260206004820152602b60248201527f74686973207472616e73616374696f6e2068617320616c72656164792062656560448201527f6e2062726f616463617374000000000000000000000000000000000000000000606482015290519081900360840190fd5b600160a060020a03821660009081526005602052604081208054600101905585116123d2576040805160e560020a62461bcd02815260206004820152602e60248201527f72657761726420746f20696e63656e746976697a652072656c61796572206d7560448201527f737420626520706f736974697665000000000000000000000000000000000000606482015290519081900360840190fd5b6123db8261206a565b851115612457576040805160e560020a62461bcd028152602060048201526024808201527f6e6f7420656e6f7567682062616c616e636520746f207265776172642072656c60448201527f6179657200000000000000000000000000000000000000000000000000000000606482015290519081900360840190fd5b61246289898461465c565b61246d338387614176565b50600198975050505050505050565b600054600160a060020a0316331461249357600080fd5b60015460a060020a900460ff16156124aa57600080fd5b6001805474ff0000000000000000000000000000000000000000191660a060020a1790556040517f6985a02210a168e66602d3235cb6db0e70f92b3ba4d376a33c0f3d9434bff62590600090a1565b60008061250583612912565b111561251b5761251482612912565b90506116c9565b612523611217565b92915050565b6001547501000000000000000000000000000000000000000000900460ff1681565b600054600160a060020a031681565b600454600160a060020a031681565b604080516c010000000000000000000000003081026020808401919091527f6d657461496e637265617365417070726f76616c0000000000000000000000006034840152600160a060020a0388169091026048830152605c8201869052607c8201859052609c8083018590528351808403909101815260bc909201928390528151600093918291908401908083835b602083106126175780518252601f1990920191602091820191016125f8565b5181516020939093036101000a6000190180199091169216919091179052604051920182900390912098975050505050505050565b600054600160a060020a0316331461266357600080fd5b6001805475ff000000000000000000000000000000000000000000191675010000000000000000000000000000000000000000001790556040517f19aad37188a1d3921e29eb3c66acf43d81975e107cb650d58cca878627955fd690600090a1565b6003546040805160e060020a637ccce851028152600160a060020a038086166004830152915160009386931691637ccce85191602480830192602092919082900301818887803b15801561271857600080fd5b505af115801561272c573d6000803e3d6000fd5b505050506040513d602081101561274257600080fd5b505115612787576040805160e560020a62461bcd02815260206004820152601c6024820152600080516020614a70833981519152604482015290519081900360640190fd5b6003546040805160e060020a637ccce851028152336004820181905291519192600160a060020a031691637ccce851916024808201926020929091908290030181600087803b1580156127d957600080fd5b505af11580156127ed573d6000803e3d6000fd5b505050506040513d602081101561280357600080fd5b505115612848576040805160e560020a62461bcd02815260206004820152601c6024820152600080516020614a70833981519152604482015290519081900360640190fd5b60015460a060020a900460ff161561285f57600080fd5b611c4a853386614176565b600054600160a060020a0316331461288157600080fd5b60015460a060020a900460ff161561289857600080fd5b60048054604080517f3b947d2b000000000000000000000000000000000000000000000000000000008152600160a060020a038581169482019490945290519290911691633b947d2b9160248082019260009290919082900301818387803b1580156111fc57600080fd5b600254600160a060020a031681565b60048054604080517ffaaebd21000000000000000000000000000000000000000000000000000000008152600160a060020a038581169482019490945290516000939092169163faaebd219160248082019260209290919082900301818787803b15801561169a57600080fd5b6003546040805160e060020a637ccce851028152336004820181905291519192600160a060020a031691637ccce851916024808201926020929091908290030181600087803b1580156129d157600080fd5b505af11580156129e5573d6000803e3d6000fd5b505050506040513d60208110156129fb57600080fd5b505115612a40576040805160e560020a62461bcd02815260206004820152601c6024820152600080516020614a70833981519152604482015290519081900360640190fd5b60015460a060020a900460ff1615612a5757600080fd5b612a6233848461473f565b505050565b604080516c010000000000000000000000003081026020808401919091527f6d6574615472616e7366657200000000000000000000000000000000000000006034840152600160a060020a03881690910282840152605482018690526074820185905260948083018590528351808403909101815260b490920192839052815160009391829190840190808383602083106126175780518252601f1990920191602091820191016125f8565b6003546040805160e060020a637ccce851028152600160a060020a038086166004830152915185939290921691637ccce851916024808201926020929091908290030181600087803b158015612b6857600080fd5b505af1158015612b7c573d6000803e3d6000fd5b505050506040513d6020811015612b9257600080fd5b50511515612bea576040805160e560020a62461bcd02815260206004820152601860248201527f55736572206d75737420626520626c61636b6c69737465640000000000000000604482015290519081900360640190fd5b60015460a060020a900460ff1615612c0157600080fd5b600354604080517f14db6d58000000000000000000000000000000000000000000000000000000008152336004820152600080357bffffffffffffffffffffffffffffffffffffffffffffffffffffffff191660248301529151600160a060020a03909316926314db6d5892604480840193602093929083900390910190829087803b158015612c9057600080fd5b505af1158015612ca4573d6000803e3d6000fd5b505050506040513d6020811015612cba57600080fd5b50511515612d38576040805160e560020a62461bcd02815260206004820152603160248201527f5573657220646f6573206e6f742068617665207065726d697373696f6e20746f60448201527f20657865637574652066756e6374696f6e000000000000000000000000000000606482015290519081900360840190fd5b6002546040805160e160020a6367c775bf028152600160a060020a038681166004830152602482018690529151919092169163cf8eeb7e91604480830192600092919082900301818387803b158015612d9057600080fd5b505af1158015612da4573d6000803e3d6000fd5b5050600254604080517f82838c76000000000000000000000000000000000000000000000000000000008152600481018790529051600160a060020a0390921693506382838c76925060248082019260009290919082900301818387803b158015612e0e57600080fd5b505af1158015612e22573d6000803e3d6000fd5b5050604080518581529051600160a060020a03871693507fb81d1dffb753076892e04e6e1234d137b031f70d859c299876b0486e966424fd92509081900360200190a2505050565b600054600160a060020a03163314612e8157600080fd5b60015460a060020a900460ff1615612e9857600080fd5b60048054604080517fc93a6c8400000000000000000000000000000000000000000000000000000000815292830184905251600160a060020a039091169163c93a6c8491602480830192600092919082900301818387803b1580156111fc57600080fd5b60008054600160a060020a03163314612f1457600080fd5b600354600160a060020a0383811691161415612f7a576040805160e560020a62461bcd02815260206004820152601760248201527f4d7573742062652061206e657720726567756c61746f72000000000000000000604482015290519081900360640190fd5b612f8382614a47565b1515612fff576040805160e560020a62461bcd02815260206004820152603860248201527f43616e6e6f7420736574206120726567756c61746f722073746f72616765207460448201527f6f2061206e6f6e2d636f6e747261637420616464726573730000000000000000606482015290519081900360840190fd5b5060038054600160a060020a0383811673ffffffffffffffffffffffffffffffffffffffff19831681179093556040519116919082907f4a59b4b607c6055b37a4716d7813d7d4d2c288e4d0dd8298e365b260a1f262e890600090a35050565b6003546040805160e060020a637ccce851028152600160a060020a038086166004830152915160009386931691637ccce85191602480830192602092919082900301818887803b1580156130b257600080fd5b505af11580156130c6573d6000803e3d6000fd5b505050506040513d60208110156130dc57600080fd5b505115613121576040805160e560020a62461bcd02815260206004820152601c6024820152600080516020614a70833981519152604482015290519081900360640190fd5b6003546040805160e060020a637ccce851028152336004820181905291519192600160a060020a031691637ccce851916024808201926020929091908290030181600087803b15801561317357600080fd5b505af1158015613187573d6000803e3d6000fd5b505050506040513d602081101561319d57600080fd5b5051156131e2576040805160e560020a62461bcd02815260206004820152601c6024820152600080516020614a70833981519152604482015290519081900360640190fd5b60015460a060020a900460ff16156131f957600080fd5b611c4a85853361465c565b604080516c010000000000000000000000003081026020808401919091527f6d6574614275726e436172626f6e446f6c6c61720000000000000000000000006034840152600160a060020a0388169091026048830152605c8201869052607c8201859052609c8083018590528351808403909101815260bc90920192839052815160009391829190840190808383602083106126175780518252601f1990920191602091820191016125f8565b600254604080517f55b6ed5c000000000000000000000000000000000000000000000000000000008152600160a060020a0385811660048301528481166024830152915160009392909216916355b6ed5c9160448082019260209290919082900301818787803b15801561332457600080fd5b505af1158015613338573d6000803e3d6000fd5b505050506040513d602081101561334e57600080fd5b50519392505050565b600354600160a060020a031681565b6003546040805160e060020a637ccce851028152600160a060020a0380891660048301529151600093849384938b939190921691637ccce85191602480830192602092919082900301818887803b1580156133c057600080fd5b505af11580156133d4573d6000803e3d6000fd5b505050506040513d60208110156133ea57600080fd5b50511561342f576040805160e560020a62461bcd02815260206004820152601c6024820152600080516020614a70833981519152604482015290519081900360640190fd5b60015460a060020a900460ff161561344657600080fd5b61345289898888612a67565b925061345e83886144ed565b6003546040805160e060020a637ccce851028152600160a060020a0380851660048301529151939550911691637ccce851916024808201926020929091908290030181600087803b1580156134b257600080fd5b505af11580156134c6573d6000803e3d6000fd5b505050506040513d60208110156134dc57600080fd5b505115613533576040805160e560020a62461bcd02815260206004820152601560248201527f7369676e657220697320626c61636b6c69737465640000000000000000000000604482015290519081900360640190fd5b600160a060020a03821660009081526005602052604090205486146135c8576040805160e560020a62461bcd02815260206004820152602b60248201527f74686973207472616e73616374696f6e2068617320616c72656164792062656560448201527f6e2062726f616463617374000000000000000000000000000000000000000000606482015290519081900360840190fd5b600160a060020a0382166000908152600560205260408120805460010190558511613663576040805160e560020a62461bcd02815260206004820152602e60248201527f72657761726420746f20696e63656e746976697a652072656c61796572206d7560448201527f737420626520706f736974697665000000000000000000000000000000000000606482015290519081900360840190fd5b61366c8261206a565b88860111156136eb576040805160e560020a62461bcd02815260206004820152603160248201527f6e6f7420656e6f7567682062616c616e636520746f207472616e73666572206160448201527f6e64207265776172642072656c61796572000000000000000000000000000000606482015290519081900360840190fd5b61246289838a614176565b600154600160a060020a031681565b600054600160a060020a0316331461371c57600080fd5b60015460a060020a900460ff161561373357600080fd5b61373c8261162d565b15156137a6576040805160e560020a62461bcd02815260206004820152603e6024820152600080516020614a5083398151915260448201527f72696f7220746f2073657474696e6720636f6e76657273696f6e206665650000606482015290519081900360840190fd5b60048054604080517fe55156b5000000000000000000000000000000000000000000000000000000008152600160a060020a0386811694820194909452602481018590529051929091169163e55156b59160448082019260009290919082900301818387803b15801561381857600080fd5b505af115801561382c573d6000803e3d6000fd5b505050505050565b6001546000908190819060a060020a900460ff161561385257600080fd5b61385e88888787613204565b915061386a82876144ed565b6003546040805160e060020a637ccce851028152600160a060020a0380851660048301529151939450911691637ccce851916024808201926020929091908290030181600087803b1580156138be57600080fd5b505af11580156138d2573d6000803e3d6000fd5b505050506040513d60208110156138e857600080fd5b50511561393f576040805160e560020a62461bcd02815260206004820152601560248201527f7369676e657220697320626c61636b6c69737465640000000000000000000000604482015290519081900360640190fd5b600160a060020a03811660009081526005602052604090205485146139d4576040805160e560020a62461bcd02815260206004820152602b60248201527f74686973207472616e73616374696f6e2068617320616c72656164792062656560448201527f6e2062726f616463617374000000000000000000000000000000000000000000606482015290519081900360840190fd5b600160a060020a0381166000908152600560205260408120805460010190558411613a6f576040805160e560020a62461bcd02815260206004820152602e60248201527f72657761726420746f20696e63656e746976697a652072656c61796572206d7560448201527f737420626520706f736974697665000000000000000000000000000000000000606482015290519081900360840190fd5b613a788161206a565b8785011115613af7576040805160e560020a62461bcd02815260206004820152602d60248201527f6e6f7420656e6f7567682062616c616e636520746f206275726e20616e64207260448201527f65776172642072656c6179657200000000000000000000000000000000000000606482015290519081900360840190fd5b613b0281898961473f565b613b0d338286614176565b506001979650505050505050565b600054600160a060020a03163314613b3257600080fd5b600160a060020a0381161515613b4757600080fd5b6001805473ffffffffffffffffffffffffffffffffffffffff1916600160a060020a0392909216919091179055565b60008054600160a060020a03163314613b8e57600080fd5b613b973061206a565b821115613bee576040805160e560020a62461bcd02815260206004820152601e60248201527f6e6f7420656e6f7567682062616c616e636520746f207472616e736665720000604482015290519081900360640190fd5b6002546040805160e160020a6367c775bf028152306004820152602481018590529051600160a060020a039092169163cf8eeb7e9160448082019260009290919082900301818387803b158015613c4457600080fd5b505af1158015613c58573d6000803e3d6000fd5b5050600254604080517f21e5383a000000000000000000000000000000000000000000000000000000008152336004820152602481018790529051600160a060020a0390921693506321e5383a925060448082019260009290919082900301818387803b158015613cc857600080fd5b505af1158015613cdc573d6000803e3d6000fd5b5050604080518581529051339350309250600080516020614a908339815191529181900360200190a3506001919050565b600054600160a060020a03163314613d2457600080fd5b6001805475ff000000000000000000000000000000000000000000191690556040517f0f2e5b6c72c6a4491efd919a9f9a409f324ef0708c11ee57d410c2cb06c0992b90600090a1565b600082821115613d7a57fe5b50900390565b600160a060020a0382161515613de0576040805160e560020a62461bcd02815260206004820152601c60248201527f6275726e657220616464726573732063616e6e6f742062652030783000000000604482015290519081900360640190fd5b613de98261206a565b811115613e40576040805160e560020a62461bcd02815260206004820152601a60248201527f6e6f7420656e6f7567682062616c616e636520746f206275726e000000000000604482015290519081900360640190fd5b6002546040805160e160020a6367c775bf028152600160a060020a038581166004830152602482018590529151919092169163cf8eeb7e91604480830192600092919082900301818387803b158015613e9857600080fd5b505af1158015613eac573d6000803e3d6000fd5b5050600254604080517f82838c76000000000000000000000000000000000000000000000000000000008152600481018690529051600160a060020a0390921693506382838c76925060248082019260009290919082900301818387803b158015613f1657600080fd5b505af1158015613f2a573d6000803e3d6000fd5b5050604080518481529051600160a060020a03861693507fcc16f5dbb4873280815c1ee09dbd06736cffcc184412cf7a71a0fdb75d397ca592509081900360200190a2604080518281529051600091600160a060020a03851691600080516020614a908339815191529181900360200190a35050565b600160a060020a0382161515614000576040805160e560020a62461bcd02815260206004820152601860248201527f746f20616464726573732063616e6e6f74206265203078300000000000000000604482015290519081900360640190fd5b600254604080517fe468688e000000000000000000000000000000000000000000000000000000008152600481018490529051600160a060020a039092169163e468688e9160248082019260009290919082900301818387803b15801561406657600080fd5b505af115801561407a573d6000803e3d6000fd5b5050600254604080517f21e5383a000000000000000000000000000000000000000000000000000000008152600160a060020a0387811660048301526024820187905291519190921693506321e5383a9250604480830192600092919082900301818387803b1580156140ec57600080fd5b505af1158015614100573d6000803e3d6000fd5b5050604080518481529051600160a060020a03861693507f0f6798a560793a54c3bcfe86a93cde1e73087d944c0ea20544137d412139688592509081900360200190a2604080518281529051600160a060020a03841691600091600080516020614a908339815191529181900360200190a35050565b600160a060020a03831615156141d6576040805160e560020a62461bcd02815260206004820152601860248201527f746f20616464726573732063616e6e6f74206265203078300000000000000000604482015290519081900360640190fd5b6141df8261206a565b811115614236576040805160e560020a62461bcd02815260206004820152601e60248201527f6e6f7420656e6f7567682062616c616e636520746f207472616e736665720000604482015290519081900360640190fd5b600254604080517f21e5383a000000000000000000000000000000000000000000000000000000008152600160a060020a03868116600483015260248201859052915191909216916321e5383a91604480830192600092919082900301818387803b1580156142a457600080fd5b505af11580156142b8573d6000803e3d6000fd5b50506002546040805160e160020a6367c775bf028152600160a060020a03878116600483015260248201879052915191909216935063cf8eeb7e9250604480830192600092919082900301818387803b15801561431457600080fd5b505af1158015614328573d6000803e3d6000fd5b5050604080518481529051600160a060020a03808816945086169250600080516020614a908339815191529181900360200190a3505050565b600061436d82856132b1565b90508083111561440857600254604080517fda46098c000000000000000000000000000000000000000000000000000000008152600160a060020a0385811660048301528781166024830152600060448301819052925193169263da46098c9260648084019391929182900301818387803b1580156143eb57600080fd5b505af11580156143ff573d6000803e3d6000fd5b50505050614497565b600254604080517f97d88cd2000000000000000000000000000000000000000000000000000000008152600160a060020a038581166004830152878116602483015260448201879052915191909216916397d88cd291606480830192600092919082900301818387803b15801561447e57600080fd5b505af1158015614492573d6000803e3d6000fd5b505050505b83600160a060020a031682600160a060020a03167f8c5be1e5ebec7d5bd14f71427d1e84f3dd0314c0f7b2291e5b200ac8c7c3b9256144d685886132b1565b60408051918252519081900360200190a350505050565b600080600080845160411415156145075760009350614653565b50505060208201516040830151606084015160001a601b60ff8216101561452c57601b015b8060ff16601b1415801561454457508060ff16601c14155b156145525760009350614653565b604080517f19457468657265756d205369676e6564204d6573736167653a0a333200000000602080830191909152603c8083018a905283518084039091018152605c909201928390528151600193918291908401908083835b602083106145ca5780518252601f1990920191602091820191016145ab565b51815160209384036101000a60001901801990921691161790526040805192909401829003822060008084528383018087529190915260ff891683860152606083018b9052608083018a9052935160a08084019750919550601f1981019492819003909101925090865af1158015614646573d6000803e3d6000fd5b5050506020604051035193505b50505092915050565b600254604080517f5fd72d16000000000000000000000000000000000000000000000000000000008152600160a060020a03848116600483015286811660248301526044820186905291519190921691635fd72d1691606480830192600092919082900301818387803b1580156146d257600080fd5b505af11580156146e6573d6000803e3d6000fd5b5050505082600160a060020a031681600160a060020a03167f8c5be1e5ebec7d5bd14f71427d1e84f3dd0314c0f7b2291e5b200ac8c7c3b92561472984876132b1565b60408051918252519081900360200190a3505050565b600080600061474d8561162d565b15156147b7576040805160e560020a62461bcd02815260206004820152602f6024820152600080516020614a5083398151915260448201527f72696f7220746f206275726e696e670000000000000000000000000000000000606482015290519081900360840190fd5b604080517f70a0823100000000000000000000000000000000000000000000000000000000815230600482015290518694508591600160a060020a038616916370a08231916024808201926020929091908290030181600087803b15801561481e57600080fd5b505af1158015614832573d6000803e3d6000fd5b505050506040513d602081101561484857600080fd5b505110156148ec576040805160e560020a62461bcd02815260206004820152604360248201527f436172626f6e20657363726f77206163636f756e7420696e2057543020646f6560448201527f736e2774206861766520656e6f75676820746f6b656e7320666f72206275726e60648201527f696e670000000000000000000000000000000000000000000000000000000000608482015290519081900360a40190fd5b600454600160a060020a0316632ff284c285614907886124f9565b6040518363ffffffff1660e060020a0281526004018083815260200182815260200192505050602060405180830381600087803b15801561494757600080fd5b505af115801561495b573d6000803e3d6000fd5b505050506040513d602081101561497157600080fd5b50519150614985848363ffffffff613d6e16565b90506149918685613d80565b82600160a060020a03166342966c68856040518263ffffffff1660e060020a02815260040180828152602001915050600060405180830381600087803b1580156149da57600080fd5b505af11580156149ee573d6000803e3d6000fd5b505050506149fc3083613fa0565b60408051828152602081018490528151600160a060020a038916927f8a1387ce462b7423a12c936187028c782512f204b670218701c0d35e92bc0527928290030190a2505050505050565b6000903b11905600537461626c65636f696e206d7573742062652077686974656c6973746564207055736572206d757374206e6f7420626520626c61636b6c697374656400000000ddf252ad1be2c89b69c2b068fc378daa952ba7f163c4a11628f55a4df523b3efa165627a7a72305820998a3a700a931ad75a51b252f96c80e6b12340b0306fe988f51d55bdede8adde0029608060405260008054600160a060020a031990811633179091556001805490911690556106e7806100316000396000f3006080604052600436106100e55763ffffffff7c010000000000000000000000000000000000000000000000000000000060003504166318160ddd81146100ea57806321e5383a1461011157806327e235e3146101375780634e71e0c81461015857806355b6ed5c1461016d5780635fd72d161461019457806382838c76146101be5780638da5cb5b146101d657806397d88cd214610207578063cf8eeb7e14610231578063da46098c14610255578063e30443bc1461027f578063e30c3978146102a3578063e468688e146102b8578063f2fde38b146102d0578063f7ea7a3d146102f1575b600080fd5b3480156100f657600080fd5b506100ff610309565b60408051918252519081900360200190f35b34801561011d57600080fd5b50610135600160a060020a036004351660243561030f565b005b34801561014357600080fd5b506100ff600160a060020a036004351661036f565b34801561016457600080fd5b50610135610381565b34801561017957600080fd5b506100ff600160a060020a0360043581169060243516610409565b3480156101a057600080fd5b50610135600160a060020a0360043581169060243516604435610426565b3480156101ca57600080fd5b506101356004356104a4565b3480156101e257600080fd5b506101eb6104d4565b60408051600160a060020a039092168252519081900360200190f35b34801561021357600080fd5b50610135600160a060020a03600435811690602435166044356104e3565b34801561023d57600080fd5b50610135600160a060020a0360043516602435610530565b34801561026157600080fd5b50610135600160a060020a0360043581169060243516604435610570565b34801561028b57600080fd5b50610135600160a060020a03600435166024356105b3565b3480156102af57600080fd5b506101eb6105e6565b3480156102c457600080fd5b506101356004356105f5565b3480156102dc57600080fd5b50610135600160a060020a036004351661061f565b3480156102fd57600080fd5b5061013560043561067a565b60045481565b600054600160a060020a0316331461032657600080fd5b600160a060020a03821660009081526003602052604090205461034f908263ffffffff61069616565b600160a060020a0390921660009081526003602052604090209190915550565b60036020526000908152604090205481565b600154600160a060020a0316331461039857600080fd5b60015460008054604051600160a060020a0393841693909116917f8be0079c531659141344cd1fd0a4f28419497f9722a3daafe3b4186f6b6457e091a3600180546000805473ffffffffffffffffffffffffffffffffffffffff19908116600160a060020a03841617909155169055565b600260209081526000928352604080842090915290825290205481565b600054600160a060020a0316331461043d57600080fd5b600160a060020a03808416600090815260026020908152604080832093861683529290522054610473908263ffffffff61069616565b600160a060020a03938416600090815260026020908152604080832095909616825293909352929091209190915550565b600054600160a060020a031633146104bb57600080fd5b6004546104ce908263ffffffff6106a916565b60045550565b600054600160a060020a031681565b600054600160a060020a031633146104fa57600080fd5b600160a060020a03808416600090815260026020908152604080832093861683529290522054610473908263ffffffff6106a916565b600054600160a060020a0316331461054757600080fd5b600160a060020a03821660009081526003602052604090205461034f908263ffffffff6106a916565b600054600160a060020a0316331461058757600080fd5b600160a060020a0392831660009081526002602090815260408083209490951682529290925291902055565b600054600160a060020a031633146105ca57600080fd5b600160a060020a03909116600090815260036020526040902055565b600154600160a060020a031681565b600054600160a060020a0316331461060c57600080fd5b6004546104ce908263ffffffff61069616565b600054600160a060020a0316331461063657600080fd5b600160a060020a038116151561064b57600080fd5b6001805473ffffffffffffffffffffffffffffffffffffffff1916600160a060020a0392909216919091179055565b600054600160a060020a0316331461069157600080fd5b600455565b818101828110156106a357fe5b92915050565b6000828211156106b557fe5b509003905600a165627a7a723058209ca761aa3fba59f5ebae2ab3008820c8a44346aa64c878d908fad92020f286110029608060405260008054600160a060020a031990811633179091556001805490911690556106ce806100316000396000f3006080604052600436106100cf5763ffffffff7c01000000000000000000000000000000000000000000000000000000006000350416630418945a81146100d4578063166e55d9146100f75780632ff284c21461012d5780633b947d2b146101485780634e71e0c8146101695780635a6c72d01461017e5780636ad26611146101935780638da5cb5b146101b45780639b19251a146101e5578063c93a6c841461021a578063e30c397814610232578063e55156b514610247578063f2fde38b1461026b578063faaebd211461028c575b600080fd5b3480156100e057600080fd5b506100f5600160a060020a03600435166102ad565b005b34801561010357600080fd5b5061011b600435600160a060020a0360243516610310565b60408051918252519081900360200190f35b34801561013957600080fd5b5061011b60043560243561033b565b34801561015457600080fd5b506100f5600160a060020a0360043516610368565b34801561017557600080fd5b506100f56103c8565b34801561018a57600080fd5b5061011b610450565b34801561019f57600080fd5b506100f5600160a060020a0360043516610456565b3480156101c057600080fd5b506101c96104d6565b60408051600160a060020a039092168252519081900360200190f35b3480156101f157600080fd5b50610206600160a060020a03600435166104e5565b604080519115158252519081900360200190f35b34801561022657600080fd5b506100f56004356104fa565b34801561023e57600080fd5b506101c9610561565b34801561025357600080fd5b506100f5600160a060020a0360043516602435610570565b34801561027757600080fd5b506100f5600160a060020a03600435166105f7565b34801561029857600080fd5b5061011b600160a060020a0360043516610652565b600054600160a060020a031633146102c457600080fd5b600160a060020a038116600081815260046020526040808220805460ff19166001179055517f3db297c09c19972ba6a701ff373ab97e21ff1e4992e863c7abe44e9b2fed08479190a250565b600160a060020a038116600090815260026020526040812054610333848261033b565b949350505050565b600061035f6103e8610353858563ffffffff61066416565b9063ffffffff61068d16565b90505b92915050565b600054600160a060020a0316331461037f57600080fd5b600160a060020a038116600081815260046020526040808220805460ff19169055517f3302a1b37f04242bb55603f5449e7ecd690a35eef08ba1353c48c20e2aae9cda9190a250565b600154600160a060020a031633146103df57600080fd5b60015460008054604051600160a060020a0393841693909116917f8be0079c531659141344cd1fd0a4f28419497f9722a3daafe3b4186f6b6457e091a3600180546000805473ffffffffffffffffffffffffffffffffffffffff19908116600160a060020a03841617909155169055565b60035481565b60008054600160a060020a0316331461046e57600080fd5b50600160a060020a0381166000908152600260205260408120805491905580156104d257604080518281529051600160a060020a038416917fe4ca060d5956a829454e1f8734d008a552f7c9a701ba632810443acc98435c68919081900360200190a25b5050565b600054600160a060020a031681565b60046020526000908152604090205460ff1681565b60008054600160a060020a0316331461051257600080fd5b5060038054908290558181146104d257604080518281526020810184905281517f2faa036c952bde05f63e87e0c61278ffd974bfc128a2b0ef03fafdb57f5d5cea929181900390910190a15050565b600154600160a060020a031681565b60008054600160a060020a0316331461058857600080fd5b50600160a060020a03821660009081526002602052604090208054908290558181146105f25760408051828152602081018490528151600160a060020a038616927ff98c81ad0a5eb3551c3561de8dc9d1512e8680fb77425ea138ebfe9a9c0065ff928290030190a25b505050565b600054600160a060020a0316331461060e57600080fd5b600160a060020a038116151561062357600080fd5b6001805473ffffffffffffffffffffffffffffffffffffffff1916600160a060020a0392909216919091179055565b60026020526000908152604090205481565b600082151561067557506000610362565b5081810281838281151561068557fe5b041461036257fe5b6000818381151561069a57fe5b0493925050505600a165627a7a72305820d47c7d28c700c214f821734fbd503e43cf9f68db9ba601b78158fa0b204af1a40029",
    "source": "pragma solidity ^0.4.24;\n\nimport \"../carbonToken/CarbonDollar.sol\";\n\n/**\n* @title MetaToken\n* @notice Extends the CarbonDollar token by providing functionality for users to interact with\n* the permissioned token contract without needing to pay gas fees. MetaToken will perform the \n* exact same actions as a normal CarbonDollar, but first it will validate a signature of the \n* hash of the parameters and ecrecover() a signature to prove the signer so everything is still \n* cryptographically backed. Then, instead of doing actions on behalf of msg.sender, \n* it will move the signers tokens. Finally, we can also wrap in a token reward to incentivise the relayer.\n* @notice inspiration from @austingriffith and @PhABCD for leading the meta-transaction innovations\n*/\ncontract MetaToken is CarbonDollar {\n\n    /**\n    * @dev create a new CarbonDollar with a brand new data storage\n    **/\n    constructor (address _regulator) CarbonDollar(_regulator) public {\n    }\n\n    /**\n        Storage\n    */\n    mapping (address => uint256) public replayNonce;\n\n    /** \n        ERC20 Metadata\n    */\n    string public constant name = \"CUSD\";\n    string public constant symbol = \"CUSD\";\n    uint8 public constant decimals = 18;\n\n\n    /** Functions **/\n\n    /**\n    * @dev Verify and broadcast an increaseApproval() signed metatransaction. The msg.sender or \"relayer\"\n    *           will pay for the ETH gas fees since they are sending this transaction, and in exchange\n    *           the \"signer\" will pay CUSD to the relayer.\n    * @notice increaseApproval should be used instead of approve when the user's allowance\n    * is greater than 0. Using increaseApproval protects against potential double-spend attacks\n    * by moving the check of whether the user has spent their allowance to the time that the transaction \n    * is mined, removing the user's ability to double-spend\n    * @param _spender The address which will spend the funds.\n    * @param _addedValue The amount of tokens to increase the allowance by.\n    * @param _signature the metatransaction signature, which metaTransfer verifies is signed by the original transfer() sender\n    * @param _nonce to prevent replay attack of metatransactions\n    * @param _reward amount of CUSD to pay relayer in\n    * @return `true` if successful \n     */\n    function metaIncreaseApproval(address _spender, uint256 _addedValue, bytes _signature, uint256 _nonce, uint256 _reward) \n    public userNotBlacklisted(_spender) whenNotPaused returns (bool) {\n        bytes32 metaHash = metaApproveHash(_spender, _addedValue, _nonce, _reward);\n        address signer = _getSigner(metaHash, _signature);\n        require(!regulator.isBlacklistedUser(signer), \"signer is blacklisted\");\n        require(_nonce == replayNonce[signer], \"this transaction has already been broadcast\");\n        replayNonce[signer]++;\n\n        require( _reward > 0, \"reward to incentivize relayer must be positive\");\n        require( _reward <= balanceOf(signer),\"not enough balance to reward relayer\");\n        _increaseApproval(_spender, _addedValue, signer);\n        _transfer(msg.sender, signer, _reward);\n        return true;\n    }\n\n    /**\n    * @notice Verify and broadcast a transfer() signed metatransaction. The msg.sender or \"relayer\"\n    *           will pay for the ETH gas fees since they are sending this transaction, and in exchange\n    *           the \"signer\" will pay CUSD to the relayer.\n    * @param _to The address of the receiver. This user must not be blacklisted, or else the transfer\n    * will fail.\n    * @param _amount The number of tokens to transfer\n    * @param _signature the metatransaction signature, which metaTransfer verifies is signed by the original transfer() sender\n    * @param _nonce to prevent replay attack of metatransactions\n    * @param _reward amount of CUSD to pay relayer in\n    * @return `true` if successful \n    */\n    function metaTransfer(address _to, uint256 _amount, bytes _signature, uint256 _nonce, uint256 _reward) public userNotBlacklisted(_to) whenNotPaused returns (bool) {\n        bytes32 metaHash = metaTransferHash(_to, _amount, _nonce, _reward);\n        address signer = _getSigner(metaHash, _signature);\n        require(!regulator.isBlacklistedUser(signer), \"signer is blacklisted\");\n        require(_nonce == replayNonce[signer], \"this transaction has already been broadcast\");\n        replayNonce[signer]++;\n\n        require( _reward > 0, \"reward to incentivize relayer must be positive\");\n        require( (_amount + _reward) <= balanceOf(signer),\"not enough balance to transfer and reward relayer\");\n        _transfer(_to, signer, _amount);\n        _transfer(msg.sender, signer, _reward);\n        return true;\n    }\n\n    /**\n    * @notice Verify and broadcast a burnCarbonDollar() signed metatransaction. The msg.sender or \"relayer\"\n    *           will pay for the ETH gas fees since they are sending this transaction, and in exchange\n    *           the \"signer\" will pay CUSD to the relayer.\n    * @param _stablecoin Represents the stablecoin that is backing the active CUSD.\n    * @param _amount The number of tokens to transfer\n    * @param _signature the metatransaction signature, which metaTransfer verifies is signed by the original transfer() sender\n    * @param _nonce to prevent replay attack of metatransactions\n    * @param _reward amount of CUSD to pay relayer in\n    * @return `true` if successful \n    */\n    function metaBurnCarbonDollar(address _stablecoin, uint256 _amount, bytes _signature, uint256 _nonce, uint256 _reward) public whenNotPaused returns (bool) {\n        bytes32 metaHash = metaBurnHash(_stablecoin, _amount, _nonce, _reward);\n        address signer = _getSigner(metaHash, _signature);\n        require(!regulator.isBlacklistedUser(signer), \"signer is blacklisted\");\n        require(_nonce == replayNonce[signer], \"this transaction has already been broadcast\");\n        replayNonce[signer]++;\n\n        require( _reward > 0, \"reward to incentivize relayer must be positive\");\n        require( (_amount + _reward) <= balanceOf(signer),\"not enough balance to burn and reward relayer\");\n        _burnCarbonDollar(signer, _stablecoin, _amount);\n        _transfer(msg.sender, signer, _reward);\n        return true;\n    }\n\n    /**\n    * @notice Return hash containing all of the information about the transfer() metatransaction\n    * @param _to The address of the transfer receiver\n    * @param _amount The number of tokens to transfer\n    * @param _nonce to prevent replay attack of metatransactions\n    * @param _reward amount of CUSD to pay relayer in\n    * @return bytes32 hash of metatransaction\n    */\n    function metaTransferHash(address _to, uint256 _amount, uint256 _nonce, uint256 _reward) public view returns(bytes32){\n        return keccak256(abi.encodePacked(address(this),\"metaTransfer\", _to, _amount, _nonce, _reward));\n    }\n\n    /**\n    * @notice Return hash containing all of the information about the increaseApproval() metatransaction\n    * @param _spender The address which will spend the funds.\n    * @param _addedValue The amount of tokens to increase the allowance by.\n    * @param _nonce to prevent replay attack of metatransactions\n    * @param _reward amount of CUSD to pay relayer in\n    * @return bytes32 hash of metatransaction\n    */\n    function metaApproveHash(address _spender, uint256 _addedValue, uint256 _nonce, uint256 _reward) public view returns(bytes32){\n        return keccak256(abi.encodePacked(address(this),\"metaIncreaseApproval\", _spender, _addedValue, _nonce, _reward));\n    }\n\n    /**\n    * @notice Return hash containing all of the information about the burnCarbonDollar() metatransaction\n    * @param _stablecoin Represents the stablecoin that is backing the active CUSD.    \n    * @param _amount The number of tokens to burn\n    * @param _nonce to prevent replay attack of metatransactions\n    * @param _reward amount of CUSD to pay relayer in\n    * @return bytes32 hash of metatransaction\n    */\n    function metaBurnHash(address _stablecoin, uint256 _amount, uint256 _nonce, uint256 _reward) public view returns(bytes32){\n        return keccak256(abi.encodePacked(address(this),\"metaBurnCarbonDollar\", _stablecoin, _amount, _nonce, _reward));\n    }\n\n    /**\n    * @dev Recover signer of original metatransaction \n    * @param _hash derived bytes32 metatransaction signature, which should be the same as the parameter _signature\n    * @param _signature bytes metatransaction signature, the signature is generated using web3.eth.sign()\n    * @return address of hash signer\n    */\n    function _getSigner(bytes32 _hash, bytes _signature) internal pure returns (address){\n        bytes32 r;\n        bytes32 s;\n        uint8 v;\n        if (_signature.length != 65) {\n            return address(0);\n        }\n        assembly {\n            r := mload(add(_signature, 32))\n            s := mload(add(_signature, 64))\n            v := byte(0, mload(add(_signature, 96)))\n        }\n        if (v < 27) {\n            v += 27;\n        }\n        if (v != 27 && v != 28) {\n            return address(0);\n        } else {\n            return ecrecover(keccak256(\n                abi.encodePacked(\"\\x19Ethereum Signed Message:\\n32\", _hash)\n            ), v, r, s);\n        }\n    }\n\n}",
    "sourcePath": "/Users/nicholaspai/Carbon/fiat_gateway/contracts/tokens/permissionedToken/MetaToken.sol",
    "compiler": {
        "name": "solc",
        "version": "0.4.24+commit.e67f0147.Emscripten.clang"
    },
    "schemaVersion": "2.0.1",
    "updatedAt": "2018-12-13T18:27:59.770Z"
}